:020000023000CC
:10E000000D9489F10D94B2F10D94B2F10D94B2F129
:10E010000D94B2F10D94B2F10D94B2F10D94B2F1F0
:10E020000D94B2F10D94B2F10D94B2F10D94B2F1E0
:10E030000D94B2F10D94B2F10D94B2F10D94B2F1D0
:10E040000D94B2F10D94B2F10D94B2F10D94B2F1C0
:10E050000D94B2F10D94B2F10D94B2F10D94B2F1B0
:10E060000D94B2F10D94B2F10D94B2F10D94B2F1A0
:10E070000D94B2F10D94B2F10D94B2F10D94B2F190
:10E080000D94B2F10D94B2F10D94B2F10D94B2F180
:10E090000D94B2F10D94B2F10D94B2F10D94B2F170
:10E0A0000D94B2F10D94B2F10D94B2F10D94B2F160
:10E0B0000D94B2F10D94B2F10D94B2F10D94B2F150
:10E0C0000D94B2F10D94B2F10D94B2F10D94B2F140
:10E0D0000D94B2F10D94B2F10D94B2F10D94B2F130
:10E0E0000D94B2F12A00593D506F727420626C6930
:10E0F0006E6B00563D73686F7720696E746572723F
:10E1000075707420566563746F727300523D447568
:10E110006D702052414D00513D51756974004C3D68
:10E120004C69737420492F4F20506F7274730048EC
:10E130003D48656C7000463D44756D7020464C410D
:10E14000534800453D44756D7020454550524F4D34
:10E1500000423D426C696E6B204C454400403D4599
:10E160004550524F4D2074657374003F3D435055E8
:10E1700020737461747300303D5A65726F2061645E
:10E18000647200504F5254004545206572722063FE
:10E190006E743D0052656164696E672045450057A5
:10E1A00072697474696E672045450020004D75736F
:10E1B000742062652061206C657474657200506F14
:10E1C0007274206E6F7420737570706F72746564F2
:10E1D000005768617420706F72743A006A6D702025
:10E1E00000726A6D702020006E6F20766563746F18
:10E1F00072005623202020414444522020206F707A
:10E2000020636F64652020202020696E737472750E
:10E210006374696F6E2061646472202020496E749B
:10E2200065727275707400372E332E3000322E30C6
:10E230002E30004A616E2020332032303236004CBE
:10E240006F636B20667573652020203D2000457844
:10E25000742066757365202020203D200048696782
:10E260006820667573652020203D20004C6F772064
:10E2700066757365202020203D20004350552049BD
:10E28000442020202020203D200047434320566585
:10E290007273696F6E203D2000415652204C6962B6
:10E2A00043205665723D20005F5F4156525F4152E8
:10E2B00043485F5F3D2000435055205479706520EE
:10E2C0002020203D2000436F6D70696C6564206FD5
:10E2D0006E203D20004875683F00426F6F746C6F80
:10E2E000616465723E0041726475696E6F20657885
:10E2F000706C6F7265722073746B353030563220DB
:10E300006279204D4C530041546D6567613235365A
:10E31000300011241FBECFEFD1E2DEBFCDBF01E040
:10E320000CBF12E0A0E0B2E0EAEBF8EF03E00BBFB5
:10E3300002C007900D92A430B107D9F722E0A4E003
:10E34000B2E001C01D92A331B207E1F70F9414F3BC
:10E350000D945BFC01E20EBF0FEF0DBF11241FBE39
:10E360000D9414F30D9400F080910602882329F097
:10E370008091C000807890E008958091D000FACF1D
:10E3800090910602992361F08093C6008091C000AD
:10E3900086FFFCCF8091C00080648093C000089508
:10E3A0008093D6008091D00086FFFCCF8091D00072
:10E3B00080648093D000089530E020E0281739076A
:10E3C00009F40895EFECF7E03197F1F700C0000091
:10E3D0002F5F3F4FF3CFCF93DF93EC01C60FD11DDB
:10E3E000CE01B0E0A0E0ABBFFC018791882321F013
:10E3F00021960F94C0F1F4CFDF91CF9108958DE075
:10E400000F94C0F18AE00D94C0F10F94EBF10D94DC
:10E41000FFF1CF93DF93EC018991882319F00F94DA
:10E42000C0F1FACFDF91CF910895CF93C82F982FE5
:10E4300092959F7080E3890F8A3310F087E3890FEC
:10E440000F94C0F1CF7080E38C0F8A3310F087E314
:10E450008C0FCF910D94C0F10F931F93CF93DF9347
:10E46000EC018B01853691051CF4633071054CF08D
:10E47000CE0164E670E00F94F4FB80E3860F0F9406
:10E48000C0F1CB30D1051CF4023011056CF0CE0187
:10E4900064E670E00F94F4FB6AE070E00F94F4FB24
:10E4A00080E3860F0F94C0F1CE016AE070E00F9414
:10E4B000F4FB805DDF91CF911F910F910D94C0F11E
:10E4C00080910602882339F08091C00087FFFCCF3D
:10E4D0008091C60008958091D00087FFFCCF809185
:10E4E000D6000895CF93C82F60E083E891EE0F9493
:10E4F000EBF18C2F0F94C0F1CF910D94FFF12F927F
:10E500003F924F925F926F927F928F929F92AF92C3
:10E51000BF92CF92DF92EF92FF920F931F93CF9310
:10E52000DF93CDB7DEB763970FB6F894DEBF0FBEAB
:10E53000CDBF8B8B6A017B0180E1A82E4E0181E16A
:10E54000880E911CE1E0CE16D104EE06F10418F01D
:10E550008E2D0F9415F28D2D0F9415F28C2D0F9496
:10E5600015F280E20F94C0F18DE20F94C0F180E2C9
:10E570000F94C0F119828E010F5F1F4F26013701E2
:10E580001801FB89F13009F443C0F23009F445C0A9
:10E590006BBEF201B7908B2D0F9415F280E20F94B1
:10E5A000C0F180EE8B0D8F35D8F5F801B082EFEF1A
:10E5B0004E1A5E0A6E0A7E0A0F5F1F4F0815190574
:10E5C00001F7F0E1CF0ED11CE11CF11C198AC10149
:10E5D0000F9409F20F94FFF1AA94A110B3CF6396A0
:10E5E0000FB6F894DEBF0FBECDBFDF91CF911F9164
:10E5F0000F91FF90EF90DF90CF90BF90AF909F90E2
:10E600008F907F906F905F904F903F902F900895E4
:10E61000C2010F9445FCB82EBECFF201B080BBCF33
:10E620008EE2F8018083C3CFCF93DF93CDB7DEB7FF
:10E63000C653D1400FB6F894DEBF0FBECDBF01E286
:10E640000EBF0FEF0DBF94B7F894A89514BE80913C
:10E65000600088618093600010926000789493FF5E
:10E6600005C0E0910402F091050219959A9AA29AC8
:10E670006898709A809101018E7F8093010180914A
:10E68000020181608093020180910A018F7780935B
:10E690000A0180910B018F7780930B0184E690E053
:10E6A0000F94DCF18091090180788093060284E662
:10E6B00090E00F94DCF180910602882309F450C0A9
:10E6C0008091C00082608093C00080E18093C4008C
:10E6D00088E18093C100000084E690E00F94DCF1B3
:10E6E00010E000E0C12CD12C7601F7EC8F2EFBE17D
:10E6F0009F2EA12CB12CA4E07A2E0F94B4F1892B7B
:10E7000019F401151105C1F1012B09F020C7C55DF0
:10E71000DE4F19821882CB52D140F12CE12CC95D19
:10E72000DE4F19821882C752D140CE5DDE4F18826B
:10E7300019821A821B82C252D140412C512C3201C3
:10E7400041E050E0CA5DDE4F1882C652D140B12C84
:10E750009E012F5F3F4F190130E020E080E091C51E
:10E760008091D00082608093D00080E18093D400BB
:10E7700088E18093D100AFCF25E02A95F1F7000022
:10E780003FEFC31AD30AE30AF30A91E080E041E4C1
:10E79000C4164CE9D406E104F10408F490E0092F12
:10E7A000182FC701B601A50194010F9408FC672B2F
:10E7B000682B692B09F0A1CF84B3872584BB9DCF3B
:10E7C00091111AC041E052E16AE770E09091D000E7
:10E7D00097FF1BC09091D6005FC541505109610958
:10E7E000710971F46BBFFA01479156914F3F5F4F2A
:10E7F00019F0EE27FF27099441E052E16AE770E043
:10E800009091C00097FFE9CF45C54150510961097A
:10E810007109E1F66BBFFA01479156914F3F5F4F87
:10E8200009F4D0CFEE27FF270994CCCF123409F496
:10E83000A8C1153409F09DC562E083E491EE0F9400
:10E8400005F240910702509108026091090270910F
:10E850000A0281E00F947FF28091070290910802F2
:10E86000A0910902B0910A029F5FAF4FBF4F809302
:10E87000070290930802A0930902B0930A0281153F
:10E880009041A105B10508F451C573C0113509F4D3
:10E89000F7C168F5183409F4B1C11C3409F069C531
:10E8A00062E08EE191EE0F9405F281E40F9472F232
:10E8B00082E40F9472F283E40F9472F284E40F9472
:10E8C00072F285E40F9472F286E40F9472F287E498
:10E8D0000F9472F288E40F9472F28AE40F9472F249
:10E8E0008BE40F9472F28CE40F9472F21FC516350C
:10E8F00009F4E7C1193509F4A0C3123509F039C587
:10E9000062E08CE091EE0F9405F240910F0250917D
:10E910001002609111027091120282E00F947FF256
:10E9200080910F0290911002A0911102B0911202F9
:10E930009F5FAF4FBF4F80930F0290931002A09341
:10E940001102B0931202F2C462E087E791EE0F94D5
:10E9500005F210920B0210920C0210920D0210920E
:10E960000E0210920F0210921002109211021092D9
:10E9700012021092070210920802109209021092DD
:10E980000A02D4C462E08BE691EE0F9405F260E0D7
:10E9900086EE92EE0F9405F260E086EC92EE0F9414
:10E9A000EBF160E083E392EE0F9405F260E087EB19
:10E9B00092EE0F94EBF160E087E093EE0F9405F296
:10E9C00060E088EA92EE0F94EBF186E30F94C0F1D9
:10E9D0000F94FFF160E08AE892EE0F94EBF160E0B3
:10E9E00087E292EE0F9405F260E089E992EE0F94CF
:10E9F000EBF160E08DE292EE0F9405F260E08BE7C0
:10EA000092EE0F94EBF18EE10F9415F288E90F94DA
:10EA100015F281E00F9415F20F94FFF160E08CE69F
:10EA200092EE0F94EBF129E0F0E0E0E02093570044
:10EA300084910F9415F20F94FFF160E08DE592EE52
:10EA40000F94EBF129E0E3E0F0E02093570084918C
:10EA50000F9415F20F94FFF160E08EE492EE0F94A4
:10EA6000EBF1E2E0F0E039E03093570084910F944D
:10EA700015F20F94FFF160E08FE392EE0F94EBF14B
:10EA8000E1E0F0E049E04093570084910F9415F2E3
:10EA90000F94FFF14BC462E08DE591EE0F9405F207
:10EAA00060E08FE991EE0F9405F20F94FFF1F12CE5
:10EAB000E12CC7018A519D41B0E0A0E0ABBFFC0151
:10EAC00017911A3221F0E11482E0F80681F50F94D3
:10EAD000FFF10F94FFF160E084E991EE0F9405F2ED
:10EAE0000F94FFF1D12CC12CF12CE12CC7018A51DC
:10EAF0009D41B0E0A0E0ABBFFC0117911A3221F0BC
:10EB0000E114B2E0FB0631F50F94FFF10F94FFF131
:10EB100060E088E891EE0F94EBF161E070E0C601EF
:10EB20000F942CF20F94FFF10F94FFF122CF612F7D
:10EB3000C7010F944DFC111109C060E08BEA91EE02
:10EB40000F94EBF15FEFE51AF50AB3CF812F0F9425
:10EB5000C0F1F8CFC7010F9445FCB82E81110EC04B
:10EB600060E08BEA91EE0F94EBF1B11619F09FEF94
:10EB7000C91AD90AAFEFEA1AFA0AB8CF0F94C0F14E
:10EB8000F4CF62E081E591EE0F9405F29A9AA29A91
:10EB90000F94B4F1892B19F00F9460F2C7C3A298B7
:10EBA00084E690E00F94DCF1A29A84E690E00F9462
:10EBB000DCF1EECF62E086E391EE0F9405F2409136
:10EBC0000B0250910C0260910D0270910E0280E0D8
:10EBD0000F947FF280910B0290910C02A0910D0294
:10EBE000B0910E029F5FAF4FBF4F80930B02909387
:10EBF0000C02A0930D02B0930E0298C362E08FE264
:10EC000091EE0F9405F260E087E791EE0F9405F224
:10EC100060E08BE691EE0F9405F260E08DE591EEF9
:10EC20000F9405F260E081E591EE0F9405F260E04B
:10EC300083E491EE0F9405F260E086E391EE0F9489
:10EC400005F260E08FE291EE0F9405F260E08EE154
:10EC500091EE0F9405F260E087E191EE0F9405F2DA
:10EC600060E08CE091EE0F9405F260E083EF90EEAF
:10EC70000F9405F260E086EE90EE0F9405F256C315
:10EC800062E087E191EE0F9405F2F12CE12CF1E0C6
:10EC9000C25EDE4FF883CE51D1402981223109F482
:10ECA000A7C408F0BCC3233009F46AC408F0A2C3A7
:10ECB000213009F4F6C3223009F476C480EC8A834B
:10ECC00074C462E083EF90EE0F9405F260E087E099
:10ECD00093EE0F9405F260E082EF91EE0F9405F24F
:10ECE000C75DDE4F19821882C952D140C25EDE4F25
:10ECF000188219821A821B82CE51D140C25EDE4F29
:10ED0000288139814A815B81CE51D1405695479502
:10ED100037952795C35DDE4F288339834A835B830C
:10ED2000CD52D140C75DDE4F48815981C952D14093
:10ED30004F5F5F4FC75DDE4F59834883C952D14053
:10ED400062E070E0CA010F942CF280E20F94C0F1EF
:10ED50008DE20F94C0F180E20F94C0F180E00F9437
:10ED600015F2C35DDE4F8881CD52D1400F9415F26C
:10ED700080E20F94C0F18DE30F94C0F180E20F9414
:10ED8000C0F1C25EDE4F88819981AA81BB81CE51DC
:10ED9000D140ABBFFC019791CB5CDE4F9883C5534C
:10EDA000D140892E912CB12CA12CC25EDE4F8881DE
:10EDB0009981AA81BB81CE51D1400196A11DB11D7F
:10EDC000ABBFFC018791282F30E050E040E0CF5CE2
:10EDD000DE4F288339834A835B83C153D140C25EAF
:10EDE000DE4F488159816A817B81CE51D1404E5F8F
:10EDF0005F4F6F4F7F4F6BBFFA013791CA5CDE4F99
:10EE00003883C653D140C25EDE4F488159816A8142
:10EE10007B81CE51D1404D5F5F4F6F4F7F4F6BBFB6
:10EE2000FA011791C25EDE4F288139814A815B81E8
:10EE3000CE51D1402C5F3F4F4F4F5F4FC25EDE4FF0
:10EE4000288339834A835B83CE51D140CF5CDE4F28
:10EE5000288139814A815B81C153D140CC24D22E93
:10EE6000E32EF42EC80CD91CEA1CFB1C0F9415F2DF
:10EE700080E20F94C0F1CB5CDE4F8881C553D14056
:10EE80000F9415F280E20F94C0F1812F0F9415F2C8
:10EE900080E20F94C0F1CA5CDE4F8881C653D14036
:10EEA0000F9415F280E20F94C0F13FEFC316D30622
:10EEB000E104F10491F460E088EE91EE0F94EBF13F
:10EEC0000F94FFF1C75DDE4F28813981C952D140CF
:10EED0002933310509F012CF29C2D701C60188278D
:10EEE000907CAA27BB278115904CA105B10579F527
:10EEF0005FE3D522EE24FF24C35DDE4F8880998036
:10EF0000AA80BB80CD52D1408C0C9D1CAE1CBF1C76
:10EF1000880C991CAA1CBB1C60E081EE91EE0F943A
:10EF2000EBF18D2D0F9415F28C2D0F9415F280E2DC
:10EF30000F94C0F18EE30F94C0F180E00F9415F2AE
:10EF4000892D0F9415F2882D0F9415F2B9CF8EE00C
:10EF5000C822E894D0F8EE24FF249CE0C91694E976
:10EF6000D906E104F10409F0ABCF812F90E0B0E0C5
:10EF7000A0E0BA2FA92F982F8827CA5CDE4FE8811E
:10EF8000C653D1408E0F911DA11DB11DCF5CDE4F28
:10EF9000488159816A817B81C153D140E5E1440FA9
:10EFA000551F661F771FEA95D1F7442755276072D2
:10EFB0007727480F591F6A1F7B1FD401992788277D
:10EFC00088279927A170BB2711E1880C991CAA1CDE
:10EFD000BB1C1A95D1F788249924F0EEAF22F1E0FA
:10EFE000BF2288299929AA29BB294A015B01880ED9
:10EFF000991EAA1EBB1E75016401CC0CDD1CEE1C03
:10F00000FF1C60E08CED91EE0F94EBF18A2D0F94D4
:10F0100015F2892D0F9415F2882D0F9415F280E2C8
:10F020000F94C0F18EE30F94C0F18E2D0F9415F262
:10F030008D2D0F9415F28C2D87CF62E086EE90EE29
:10F040000F9405F260E081ED91EE0F94EBF10F94D7
:10F0500060F2182F1F75812F0F94C0F10F94FFF1EC
:10F060008FEB810F8A3108F0DCC0163409F481C0BF
:10F07000D0F4133409F457C048F41134B1F1123408
:10F0800009F442C060E08EEB91EEF7CD143409F440
:10F0900059C01534B9F70DB90F94B4F1892B09F49F
:10F0A00060C01EB879CD1A3409F48BC078F41734D7
:10F0B00009F46EC0183431F7009301010F94B4F1D4
:10F0C000892B09F474C01092020166CD1B3409F437
:10F0D0008BC01C34B9F600930A010F94B4F1892B4C
:10F0E00009F495C010920B0157CD01B90F94B4F1FA
:10F0F000892B11F012B850CD82B1809582B988EC7D
:10F1000090E00F94DCF1F2CF04B90F94B4F1892BA5
:10F1100011F015B841CD85B1809585B988EC90E0A6
:10F120000F94DCF1F2CF07B90F94B4F1892B11F0F1
:10F1300018B832CD88B1809588B988EC90E00F94EA
:10F14000DCF1F2CF0AB90F94B4F1892B11F01BB89E
:10F1500023CD8BB180958BB988EC90E00F94DCF1D6
:10F16000F2CF8EB180958EB988EC90E00F94DCF1EF
:10F1700093CF00BB0F94B4F1892B11F011BA0CCDD1
:10F1800081B3809581BB88EC90E00F94DCF1F2CFE5
:10F1900003BB0F94B4F1892B11F014BAFDCC84B3E6
:10F1A000809584BB88EC90E00F94DCF1F2CF8091E5
:10F1B000020180958093020188EC90E00F94DCF1CD
:10F1C0007DCF009304010F94B4F1892B19F01092B4
:10F1D0000501E2CC8091050180958093050188ECC2
:10F1E00090E00F94DCF1EFCF009307010F94B4F19E
:10F1F000892B19F010920801CFCC809108018095DD
:10F200008093080188EC90E00F94DCF1EFCF8091BF
:10F210000B01809580930B0188EC90E00F94DCF15A
:10F220005CCF60E08DEA91EE28CD833009F4AFC069
:10F2300068F4813009F4A1C0E8F0F12CE12C292F09
:10F2400030E0322F2227B92683E019C0853009F437
:10F25000B2C008F4A2C0F12CE12C863009F4BFC280
:10F26000F12CE12C873059F4C25EDE4F1882CE516A
:10F27000D14013CDF12CE12C9B3109F491C250E027
:10F2800040E0909106024130510509F099CA992356
:10F2900009F4A0CA9091C600C55DDE4FE881F981EE
:10F2A000CB52D1403196C55DDE4FF983E883CB5216
:10F2B000D140913209F0B9CF3A9708F07DC2FFEF03
:10F2C000EF1AFF0A43E0E416F10409F077C2E5E023
:10F2D000EE2EF12C09E110E081E20F94C0F1015013
:10F2E0001109D1F70F94FFF151E0E51AF10891F7F8
:10F2F00010920F021092100210921102109212023C
:10F3000010920B0210920C0210920D0210920E023B
:10F3100010920702109208021092090210920A023B
:10F3200060E086EE92EE0F9405F20FEF60E08AED5A
:10F3300092EE0F94EBF10F9460F2182F803608F0E4
:10F340001F751032B0F0812F0F94C0F180E20F943E
:10F35000C0F1163409F42ECC08F098CA103409F420
:10F360009ACB08F063CA103309F4EECA1F3309F4CC
:10F3700009CB60E085ED92EE80CCF12CE12CB92632
:10F38000CA5DDE4F9883C652D14082E078CFF12C1F
:10F39000E12C292BB92684E072CFF12CE12C9E3090
:10F3A00009F020C2B926C95DDE4F19821882C75202
:10F3B000D14085E064CFF12CE12CC95DDE4F48815E
:10F3C0005981C752D1404F5F5F4FC95DDE4FE88121
:10F3D000F981C752D140E20DF31D9083B92642173F
:10F3E000530709F4E1C1C95DDE4F59834883C75211
:10F3F000D140DFCF203109F4D7C008F0CFC026308C
:10F4000009F05CCC6A817B818C819D810F942AFC00
:10F410002B013C01440C551C661C771CC5C02631D1
:10F4200021F038F5243109F0F0C08A819B819827BA
:10F43000892798278C010D5F1F4F1A82243109F00C
:10F4400072C1D1016BBEF2012791369112962C93B5
:10F450001297FD01349613963C93139722E0420EC7
:10F46000511C611C711C02971296009759F710826B
:10F470002DC02A3109F4A8C02B3109F499C02831D4
:10F4800009F01CCC8B81803509F0AEC08C818830AE
:10F4900009F0A6C089E0E2E0F0E080935700849193
:10F4A0008DC01A8288E08B8381E48C8386E58D830E
:10F4B00082E58E8389E48F8383E5888780E5898769
:10F4C0008FE58A8782E38B870BE010E08BE10F9456
:10F4D000C0F1CA5DDE4F8881C652D1400F94C0F1A1
:10F4E000812F0F94C0F1802F0F94C0F195E1B92EB8
:10F4F000CA5DDE4F3881C652D140B326B0268EE0B9
:10F500000F94C0F1B126AE014F5F5F4F6A01040F47
:10F51000151F0C151D0509F031C18B2D0F94C0F17D
:10F52000CA5DDE4FB881C652D140BF5FCA5DDE4FB3
:10F53000B883C652D14084B3E4E08E2784BBC25E58
:10F54000DE4FF881CE51D140FF2309F425C19A98AE
:10F55000A29884E690E00F94DCF10000809106020E
:10F56000882309F413C18091C0008D7F8093C0006F
:10F5700081E180935700E895EE27FF270994FFCF9C
:10F58000EA81E05980E0E33020F4F0E0E050FE4F03
:10F5900080811A828B8303E010E098CF31E0C25E55
:10F5A000DE4F3883CE51D1401A8202E010E08ECF78
:10F5B0008D81882329F0813029F488E91A820BC0D3
:10F5C0008EE1FCCF81E0FACF1A8289E0E1E0F0E041
:10F5D0008093570084918B831C8204E010E076CFE7
:10F5E00089E0F0E0E0E059CF89E0E3E0F0E055CFDA
:10F5F00080EC8A8302E010E0CE5DDE4F1882198233
:10F600001A821B82C252D14061CF0A811B8110270E
:10F6100001271027233109F05DC0CE5DDE4F288120
:10F6200039814A815B81C252D140211580EC380773
:10F6300083E048075105E8F483E0F90140935B005B
:10F6400080935700E89507B600FCFDCFCE5DDE4FF6
:10F65000288139814A815B81C252D1403F5F4F4F3F
:10F660005F4FCE5DDE4F288339834A835B83C2526E
:10F67000D1408B85DE011196B301A20121E01B96DA
:10F680009C911B970C01FA0160935B00209357003B
:10F69000E89511244E5F5F4F6F4F7F4F0250110965
:10F6A00012960115110521F01A968C911A97E7CF41
:10F6B00035E0F20160925B0030935700E89507B6A1
:10F6C00000FCFDCF81E180935700E8951A822A0162
:10F6D0003B016BCFD301C201B695A795979587954E
:10F6E0004101800E911E61015C01A218B3088C14C7
:10F6F0009D0469F430E020E0000F111F221F331F2A
:10F70000B901A801440D551D661D771DDFCFD60137
:10F710001A966C91C5018C0D9D1D0F944DFCBFEF89
:10F72000CB1ADB0AE4CFF1019101280F391FB30195
:10F73000A20141BD852E962EA72EBB2482BC4F5F11
:10F740005F4F6F4F7F4FF89AA0B5A2833196E217B3
:10F75000F30779F7AC014150510970E060E04F5F69
:10F760005F4F6F4F7F4F440E551E661E771EE3E0BE
:10F77000F0E0EC0FFD1FE80FF91F79CED601AD9038
:10F780006D018A2D0F94C0F1BA24C3CE8091D000B0
:10F790008D7F8093D000ECCE50E040E00D94ACF330
:10F7A0008BE1B82E81E06BCDC95DDE4F39832883B4
:10F7B000C752D14086E063CDF12CE12C833009F4AF
:10F7C000E8CD30F4813009F4DACD08F458CD37CDE6
:10F7D000853009F4F2CD30F0863009F043CD9B1529
:10F7E00009F442CD80E04BCD97FB072E16F4009430
:10F7F00007D077FD09D00F9431FC07FC05D03EF40B
:10F80000909581959F4F0895709561957F4F0895CC
:10F81000A1E21A2EAA1BBB1BFD010DC0AA1FBB1F14
:10F82000EE1FFF1FA217B307E407F50720F0A21B86
:10F83000B30BE40BF50B661F771F881F991F1A94F3
:10F8400069F760957095809590959B01AC01BD011D
:10F85000CF01089569279627692778278727782772
:10F860000895AA1BBB1B51E107C0AA1FBB1FA61707
:10F87000B70710F0A61BB70B881F991F5A95A9F759
:10F8800080959095BC01CD010895F999FECF92BD68
:10F8900081BDF89A992780B50895262FF999FECF52
:10F8A0001FBA92BD81BD20BD0FB6F894FA9AF99A9D
:0AF8B0000FBE01960895F894FFCFF3
:04F8BA000F020A002F
:040000033000E000E9
:00000001FF
